{
  "_format": "hh-sol-artifact-1",
  "contractName": "Lock",
  "sourceName": "contracts/Lock.sol",
  "abi": [
    {
      "inputs": [
        {
          "internalType": "uint256",
          "name": "_unlockTime",
          "type": "uint256"
        }
      ],
      "stateMutability": "payable",
      "type": "constructor"
    },
    {
      "anonymous": false,
      "inputs": [
        {
          "indexed": false,
          "internalType": "uint256",
          "name": "amount",
          "type": "uint256"
        },
        {
          "indexed": false,
          "internalType": "uint256",
          "name": "when",
          "type": "uint256"
        }
      ],
      "name": "Withdrawal",
      "type": "event"
    },
    {
      "inputs": [],
      "name": "getCount",
      "outputs": [
        {
          "internalType": "uint256",
          "name": "",
          "type": "uint256"
        }
      ],
      "stateMutability": "view",
      "type": "function"
    },
    {
      "inputs": [],
      "name": "increment",
      "outputs": [],
      "stateMutability": "nonpayable",
      "type": "function"
    },
    {
      "inputs": [],
      "name": "owner",
      "outputs": [
        {
          "internalType": "address payable",
          "name": "",
          "type": "address"
        }
      ],
      "stateMutability": "view",
      "type": "function"
    },
    {
      "inputs": [],
      "name": "unlockTime",
      "outputs": [
        {
          "internalType": "uint256",
          "name": "",
          "type": "uint256"
        }
      ],
      "stateMutability": "view",
      "type": "function"
    },
    {
      "inputs": [],
      "name": "withdraw",
      "outputs": [],
      "stateMutability": "nonpayable",
      "type": "function"
    }
  ],
  "bytecode": "0x60806040526040516108cf3803806108cf833981810160405281019061002591906100f7565b804210610067576040517f08c379a000000000000000000000000000000000000000000000000000000000815260040161005e906101a7565b60405180910390fd5b8060018190555033600260006101000a81548173ffffffffffffffffffffffffffffffffffffffff021916908373ffffffffffffffffffffffffffffffffffffffff16021790555060008081905550506101c7565b600080fd5b6000819050919050565b6100d4816100c1565b81146100df57600080fd5b50565b6000815190506100f1816100cb565b92915050565b60006020828403121561010d5761010c6100bc565b5b600061011b848285016100e2565b91505092915050565b600082825260208201905092915050565b7f556e6c6f636b2074696d652073686f756c6420626520696e207468652066757460008201527f7572650000000000000000000000000000000000000000000000000000000000602082015250565b6000610191602383610124565b915061019c82610135565b604082019050919050565b600060208201905081810360008301526101c081610184565b9050919050565b6106f9806101d66000396000f3fe608060405234801561001057600080fd5b50600436106100575760003560e01c8063251c1aa31461005c5780633ccfd60b1461007a5780638da5cb5b14610084578063a87d942c146100a2578063d09de08a146100c0575b600080fd5b6100646100ca565b60405161007191906103c0565b60405180910390f35b6100826100d0565b005b61008c61026e565b604051610099919061041c565b60405180910390f35b6100aa610294565b6040516100b791906103c0565b60405180910390f35b6100c861029d565b005b60015481565b6100f56040518060600160405280602b8152602001610699602b9139600154426102b8565b60015442101561013a576040517f08c379a000000000000000000000000000000000000000000000000000000000815260040161013190610494565b60405180910390fd5b600260009054906101000a900473ffffffffffffffffffffffffffffffffffffffff1673ffffffffffffffffffffffffffffffffffffffff163373ffffffffffffffffffffffffffffffffffffffff16146101ca576040517f08c379a00000000000000000000000000000000000000000000000000000000081526004016101c190610500565b60405180910390fd5b7fbf2ed60bd5b5965d685680c01195c9514e4382e28e3a5a2d2d5244bf59411b9347426040516101fb929190610520565b60405180910390a1600260009054906101000a900473ffffffffffffffffffffffffffffffffffffffff1673ffffffffffffffffffffffffffffffffffffffff166108fc479081150290604051600060405180830381858888f1935050505015801561026b573d6000803e3d6000fd5b50565b600260009054906101000a900473ffffffffffffffffffffffffffffffffffffffff1681565b60008054905090565b60016000808282546102af9190610578565b92505081905550565b6103528383836040516024016102d09392919061062b565b6040516020818303038152906040527fca47c4eb000000000000000000000000000000000000000000000000000000007bffffffffffffffffffffffffffffffffffffffffffffffffffffffff19166020820180517bffffffffffffffffffffffffffffffffffffffffffffffffffffffff8381831617835250505050610357565b505050565b61036e81610366610371610392565b63ffffffff16565b50565b60006a636f6e736f6c652e6c6f679050600080835160208501845afa505050565b61039d819050919050565b6103a5610669565b565b6000819050919050565b6103ba816103a7565b82525050565b60006020820190506103d560008301846103b1565b92915050565b600073ffffffffffffffffffffffffffffffffffffffff82169050919050565b6000610406826103db565b9050919050565b610416816103fb565b82525050565b6000602082019050610431600083018461040d565b92915050565b600082825260208201905092915050565b7f596f752063616e27742077697468647261772079657400000000000000000000600082015250565b600061047e601683610437565b915061048982610448565b602082019050919050565b600060208201905081810360008301526104ad81610471565b9050919050565b7f596f75206172656e277420746865206f776e6572000000000000000000000000600082015250565b60006104ea601483610437565b91506104f5826104b4565b602082019050919050565b60006020820190508181036000830152610519816104dd565b9050919050565b600060408201905061053560008301856103b1565b61054260208301846103b1565b9392505050565b7f4e487b7100000000000000000000000000000000000000000000000000000000600052601160045260246000fd5b6000610583826103a7565b915061058e836103a7565b92508282019050808211156105a6576105a5610549565b5b92915050565b600081519050919050565b60005b838110156105d55780820151818401526020810190506105ba565b60008484015250505050565b6000601f19601f8301169050919050565b60006105fd826105ac565b6106078185610437565b93506106178185602086016105b7565b610620816105e1565b840191505092915050565b6000606082019050818103600083015261064581866105f2565b905061065460208301856103b1565b61066160408301846103b1565b949350505050565b7f4e487b7100000000000000000000000000000000000000000000000000000000600052605160045260246000fdfe556e6c6f636b2074696d6520697320256f20616e6420626c6f636b2074696d657374616d7020697320256fa26469706673582212204b2b2cc2769757ac6112482653a818b1ad38cbca51403731b5c593a2746c2c4d64736f6c634300081b0033",
  "linkReferences": {},
  "deployedLinkReferences": {}
}