{
  "_format": "hh-sol-artifact-1",
  "contractName": "RealEstateToken",
  "sourceName": "contracts/Diagram_Contracts/RealEstateToken.sol",
  "abi": [
    {
      "inputs": [],
      "stateMutability": "nonpayable",
      "type": "constructor"
    },
    {
      "anonymous": false,
      "inputs": [
        {
          "indexed": false,
          "internalType": "uint256",
          "name": "propertyId",
          "type": "uint256"
        },
        {
          "indexed": false,
          "internalType": "address",
          "name": "newOwner",
          "type": "address"
        }
      ],
      "name": "OwnershipTransferred",
      "type": "event"
    },
    {
      "anonymous": false,
      "inputs": [
        {
          "indexed": false,
          "internalType": "uint256",
          "name": "propertyId",
          "type": "uint256"
        }
      ],
      "name": "PropertyDelisted",
      "type": "event"
    },
    {
      "anonymous": false,
      "inputs": [
        {
          "indexed": false,
          "internalType": "uint256",
          "name": "propertyId",
          "type": "uint256"
        },
        {
          "indexed": false,
          "internalType": "uint256",
          "name": "price",
          "type": "uint256"
        }
      ],
      "name": "PropertyListed",
      "type": "event"
    },
    {
      "anonymous": false,
      "inputs": [
        {
          "indexed": false,
          "internalType": "uint256",
          "name": "propertyId",
          "type": "uint256"
        },
        {
          "indexed": false,
          "internalType": "address",
          "name": "owner",
          "type": "address"
        },
        {
          "indexed": false,
          "internalType": "uint256",
          "name": "appraisalValue",
          "type": "uint256"
        }
      ],
      "name": "PropertyTokenized",
      "type": "event"
    },
    {
      "inputs": [],
      "name": "admin",
      "outputs": [
        {
          "internalType": "address",
          "name": "",
          "type": "address"
        }
      ],
      "stateMutability": "view",
      "type": "function"
    },
    {
      "inputs": [
        {
          "internalType": "uint256",
          "name": "propertyId",
          "type": "uint256"
        }
      ],
      "name": "delistProperty",
      "outputs": [],
      "stateMutability": "nonpayable",
      "type": "function"
    },
    {
      "inputs": [
        {
          "internalType": "uint256",
          "name": "propertyId",
          "type": "uint256"
        },
        {
          "internalType": "uint256",
          "name": "appraisalValue",
          "type": "uint256"
        }
      ],
      "name": "listPropertyForSale",
      "outputs": [],
      "stateMutability": "nonpayable",
      "type": "function"
    },
    {
      "inputs": [],
      "name": "nextTokenId",
      "outputs": [
        {
          "internalType": "uint256",
          "name": "",
          "type": "uint256"
        }
      ],
      "stateMutability": "view",
      "type": "function"
    },
    {
      "inputs": [
        {
          "internalType": "uint256",
          "name": "",
          "type": "uint256"
        }
      ],
      "name": "properties",
      "outputs": [
        {
          "internalType": "uint256",
          "name": "propertyId",
          "type": "uint256"
        },
        {
          "internalType": "address",
          "name": "owner",
          "type": "address"
        },
        {
          "internalType": "uint256",
          "name": "appraisalValue",
          "type": "uint256"
        },
        {
          "internalType": "bool",
          "name": "isListedForSale",
          "type": "bool"
        }
      ],
      "stateMutability": "view",
      "type": "function"
    },
    {
      "inputs": [
        {
          "internalType": "uint256",
          "name": "",
          "type": "uint256"
        }
      ],
      "name": "propertyOwner",
      "outputs": [
        {
          "internalType": "address",
          "name": "",
          "type": "address"
        }
      ],
      "stateMutability": "view",
      "type": "function"
    },
    {
      "inputs": [
        {
          "internalType": "address",
          "name": "owner",
          "type": "address"
        },
        {
          "internalType": "uint256",
          "name": "appraisalValue",
          "type": "uint256"
        }
      ],
      "name": "tokenizeProperty",
      "outputs": [
        {
          "internalType": "uint256",
          "name": "",
          "type": "uint256"
        }
      ],
      "stateMutability": "nonpayable",
      "type": "function"
    },
    {
      "inputs": [
        {
          "internalType": "uint256",
          "name": "propertyId",
          "type": "uint256"
        },
        {
          "internalType": "address",
          "name": "newOwner",
          "type": "address"
        }
      ],
      "name": "transferOwnership",
      "outputs": [],
      "stateMutability": "nonpayable",
      "type": "function"
    },
    {
      "inputs": [
        {
          "internalType": "address",
          "name": "owner",
          "type": "address"
        },
        {
          "internalType": "uint256",
          "name": "propertyId",
          "type": "uint256"
        }
      ],
      "name": "verifyOwnership",
      "outputs": [
        {
          "internalType": "bool",
          "name": "",
          "type": "bool"
        }
      ],
      "stateMutability": "view",
      "type": "function"
    }
  ],
  "bytecode": "0x6080604052348015600f57600080fd5b50336000806101000a81548173ffffffffffffffffffffffffffffffffffffffff021916908373ffffffffffffffffffffffffffffffffffffffff160217905550610eab8061005f6000396000f3fe608060405234801561001057600080fd5b50600436106100935760003560e01c806375794a3c1161006657806375794a3c1461011c57806393b423041461013a578063d1fedbc21461016a578063f7b108081461019a578063f851a440146101cd57610093565b80630f55415b146100985780631cc2ea7a146100b457806329507f73146100d05780635b14ed0b146100ec575b600080fd5b6100b260048036038101906100ad9190610994565b6101eb565b005b6100ce60048036038101906100c991906109d4565b610315565b005b6100ea60048036038101906100e59190610a5f565b610421565b005b61010660048036038101906101019190610a9f565b610625565b6040516101139190610afa565b60405180910390f35b610124610691565b6040516101319190610b24565b60405180910390f35b610154600480360381019061014f9190610a9f565b610697565b6040516101619190610b24565b60405180910390f35b610184600480360381019061017f91906109d4565b6108a5565b6040516101919190610b4e565b60405180910390f35b6101b460048036038101906101af91906109d4565b6108d8565b6040516101c49493929190610b69565b60405180910390f35b6101d5610935565b6040516101e29190610b4e565b60405180910390f35b813373ffffffffffffffffffffffffffffffffffffffff166002600083815260200190815260200160002060009054906101000a900473ffffffffffffffffffffffffffffffffffffffff1673ffffffffffffffffffffffffffffffffffffffff161461028d576040517f08c379a000000000000000000000000000000000000000000000000000000000815260040161028490610c31565b60405180910390fd5b81600360008581526020019081526020016000206002018190555060016003600085815260200190815260200160002060030160006101000a81548160ff0219169083151502179055507fd2acfbe1632c42ab1e36cabad615126d27fa805ef1e2efc7ceec17c60ffbaafd8383604051610308929190610c51565b60405180910390a1505050565b803373ffffffffffffffffffffffffffffffffffffffff166002600083815260200190815260200160002060009054906101000a900473ffffffffffffffffffffffffffffffffffffffff1673ffffffffffffffffffffffffffffffffffffffff16146103b7576040517f08c379a00000000000000000000000000000000000000000000000000000000081526004016103ae90610c31565b60405180910390fd5b60006003600084815260200190815260200160002060030160006101000a81548160ff0219169083151502179055507f96abd22e7d47a60e2f7c6de9d91b2dacc141b1f21ce398bbd843e08c8ce6a02d826040516104159190610b24565b60405180910390a15050565b60008054906101000a900473ffffffffffffffffffffffffffffffffffffffff1673ffffffffffffffffffffffffffffffffffffffff163373ffffffffffffffffffffffffffffffffffffffff16146104af576040517f08c379a00000000000000000000000000000000000000000000000000000000081526004016104a690610cec565b60405180910390fd5b6003600083815260200190815260200160002060030160009054906101000a900460ff16610512576040517f08c379a000000000000000000000000000000000000000000000000000000000815260040161050990610d7e565b60405180910390fd5b806002600084815260200190815260200160002060006101000a81548173ffffffffffffffffffffffffffffffffffffffff021916908373ffffffffffffffffffffffffffffffffffffffff160217905550806003600084815260200190815260200160002060010160006101000a81548173ffffffffffffffffffffffffffffffffffffffff021916908373ffffffffffffffffffffffffffffffffffffffff16021790555060006003600084815260200190815260200160002060030160006101000a81548160ff0219169083151502179055507fba8cc72bdfdb4f3e2281c3f17f6be90c470f76dd1106321a2928859835874bc28282604051610619929190610d9e565b60405180910390a15050565b60008273ffffffffffffffffffffffffffffffffffffffff166002600084815260200190815260200160002060009054906101000a900473ffffffffffffffffffffffffffffffffffffffff1673ffffffffffffffffffffffffffffffffffffffff1614905092915050565b60015481565b60008060009054906101000a900473ffffffffffffffffffffffffffffffffffffffff1673ffffffffffffffffffffffffffffffffffffffff163373ffffffffffffffffffffffffffffffffffffffff1614610728576040517f08c379a000000000000000000000000000000000000000000000000000000000815260040161071f90610cec565b60405180910390fd5b60006001600081548092919061073d90610df6565b91905055905060405180608001604052808281526020018573ffffffffffffffffffffffffffffffffffffffff16815260200184815260200160001515815250600360008381526020019081526020016000206000820151816000015560208201518160010160006101000a81548173ffffffffffffffffffffffffffffffffffffffff021916908373ffffffffffffffffffffffffffffffffffffffff1602179055506040820151816002015560608201518160030160006101000a81548160ff021916908315150217905550905050836002600083815260200190815260200160002060006101000a81548173ffffffffffffffffffffffffffffffffffffffff021916908373ffffffffffffffffffffffffffffffffffffffff1602179055507fd601ec042b20cd6b7e64d0ae03dd10376bddce25a059eb2fea159f6de2f33fd481858560405161089393929190610e3e565b60405180910390a18091505092915050565b60026020528060005260406000206000915054906101000a900473ffffffffffffffffffffffffffffffffffffffff1681565b60036020528060005260406000206000915090508060000154908060010160009054906101000a900473ffffffffffffffffffffffffffffffffffffffff16908060020154908060030160009054906101000a900460ff16905084565b60008054906101000a900473ffffffffffffffffffffffffffffffffffffffff1681565b600080fd5b6000819050919050565b6109718161095e565b811461097c57600080fd5b50565b60008135905061098e81610968565b92915050565b600080604083850312156109ab576109aa610959565b5b60006109b98582860161097f565b92505060206109ca8582860161097f565b9150509250929050565b6000602082840312156109ea576109e9610959565b5b60006109f88482850161097f565b91505092915050565b600073ffffffffffffffffffffffffffffffffffffffff82169050919050565b6000610a2c82610a01565b9050919050565b610a3c81610a21565b8114610a4757600080fd5b50565b600081359050610a5981610a33565b92915050565b60008060408385031215610a7657610a75610959565b5b6000610a848582860161097f565b9250506020610a9585828601610a4a565b9150509250929050565b60008060408385031215610ab657610ab5610959565b5b6000610ac485828601610a4a565b9250506020610ad58582860161097f565b9150509250929050565b60008115159050919050565b610af481610adf565b82525050565b6000602082019050610b0f6000830184610aeb565b92915050565b610b1e8161095e565b82525050565b6000602082019050610b396000830184610b15565b92915050565b610b4881610a21565b82525050565b6000602082019050610b636000830184610b3f565b92915050565b6000608082019050610b7e6000830187610b15565b610b8b6020830186610b3f565b610b986040830185610b15565b610ba56060830184610aeb565b95945050505050565b600082825260208201905092915050565b7f4f6e6c79206f776e65722063616e20706572666f726d2074686973206163746960008201527f6f6e000000000000000000000000000000000000000000000000000000000000602082015250565b6000610c1b602283610bae565b9150610c2682610bbf565b604082019050919050565b60006020820190508181036000830152610c4a81610c0e565b9050919050565b6000604082019050610c666000830185610b15565b610c736020830184610b15565b9392505050565b7f4f6e6c792061646d696e2063616e20706572666f726d2074686973206163746960008201527f6f6e000000000000000000000000000000000000000000000000000000000000602082015250565b6000610cd6602283610bae565b9150610ce182610c7a565b604082019050919050565b60006020820190508181036000830152610d0581610cc9565b9050919050565b7f50726f7065727479206d757374206265206c697374656420666f722073616c6560008201527f20746f207472616e73666572206f776e65727368697000000000000000000000602082015250565b6000610d68603683610bae565b9150610d7382610d0c565b604082019050919050565b60006020820190508181036000830152610d9781610d5b565b9050919050565b6000604082019050610db36000830185610b15565b610dc06020830184610b3f565b9392505050565b7f4e487b7100000000000000000000000000000000000000000000000000000000600052601160045260246000fd5b6000610e018261095e565b91507fffffffffffffffffffffffffffffffffffffffffffffffffffffffffffffffff8203610e3357610e32610dc7565b5b600182019050919050565b6000606082019050610e536000830186610b15565b610e606020830185610b3f565b610e6d6040830184610b15565b94935050505056fea2646970667358221220660320fc3cef468c9cd940fe713b480f05a2d0b3c83fb8844c01f9e628665dfb64736f6c634300081b0033",
  "linkReferences": {},
  "deployedLinkReferences": {}
}