{
  "_format": "hh-sol-artifact-1",
  "contractName": "RealEstateTransaction",
  "sourceName": "contracts/RealEstateTransaction.sol",
  "abi": [
    {
      "inputs": [],
      "stateMutability": "nonpayable",
      "type": "constructor"
    },
    {
      "inputs": [
        {
          "internalType": "address",
          "name": "owner",
          "type": "address"
        }
      ],
      "name": "OwnableInvalidOwner",
      "type": "error"
    },
    {
      "inputs": [
        {
          "internalType": "address",
          "name": "account",
          "type": "address"
        }
      ],
      "name": "OwnableUnauthorizedAccount",
      "type": "error"
    },
    {
      "inputs": [],
      "name": "ReentrancyGuardReentrantCall",
      "type": "error"
    },
    {
      "anonymous": false,
      "inputs": [
        {
          "indexed": false,
          "internalType": "uint256",
          "name": "propertyId",
          "type": "uint256"
        },
        {
          "indexed": false,
          "internalType": "address",
          "name": "buyer",
          "type": "address"
        },
        {
          "indexed": false,
          "internalType": "uint256",
          "name": "amount",
          "type": "uint256"
        }
      ],
      "name": "EscrowInitiated",
      "type": "event"
    },
    {
      "anonymous": false,
      "inputs": [
        {
          "indexed": false,
          "internalType": "uint256",
          "name": "propertyId",
          "type": "uint256"
        },
        {
          "indexed": false,
          "internalType": "uint256",
          "name": "amount",
          "type": "uint256"
        }
      ],
      "name": "FundsReleased",
      "type": "event"
    },
    {
      "anonymous": false,
      "inputs": [
        {
          "indexed": false,
          "internalType": "uint256",
          "name": "propertyId",
          "type": "uint256"
        },
        {
          "indexed": false,
          "internalType": "address",
          "name": "buyer",
          "type": "address"
        },
        {
          "indexed": false,
          "internalType": "uint256",
          "name": "offerPrice",
          "type": "uint256"
        }
      ],
      "name": "OfferAccepted",
      "type": "event"
    },
    {
      "anonymous": false,
      "inputs": [
        {
          "indexed": false,
          "internalType": "uint256",
          "name": "propertyId",
          "type": "uint256"
        },
        {
          "indexed": false,
          "internalType": "address",
          "name": "buyer",
          "type": "address"
        },
        {
          "indexed": false,
          "internalType": "uint256",
          "name": "offerPrice",
          "type": "uint256"
        }
      ],
      "name": "OfferMade",
      "type": "event"
    },
    {
      "anonymous": false,
      "inputs": [
        {
          "indexed": true,
          "internalType": "address",
          "name": "previousOwner",
          "type": "address"
        },
        {
          "indexed": true,
          "internalType": "address",
          "name": "newOwner",
          "type": "address"
        }
      ],
      "name": "OwnershipTransferred",
      "type": "event"
    },
    {
      "anonymous": false,
      "inputs": [
        {
          "indexed": false,
          "internalType": "uint256",
          "name": "propertyId",
          "type": "uint256"
        },
        {
          "indexed": false,
          "internalType": "address",
          "name": "owner",
          "type": "address"
        },
        {
          "indexed": false,
          "internalType": "uint256",
          "name": "price",
          "type": "uint256"
        }
      ],
      "name": "PropertyListed",
      "type": "event"
    },
    {
      "inputs": [
        {
          "internalType": "uint256",
          "name": "_propertyId",
          "type": "uint256"
        },
        {
          "internalType": "uint256",
          "name": "_offerIndex",
          "type": "uint256"
        }
      ],
      "name": "acceptOffer",
      "outputs": [],
      "stateMutability": "nonpayable",
      "type": "function"
    },
    {
      "inputs": [
        {
          "internalType": "uint256",
          "name": "",
          "type": "uint256"
        }
      ],
      "name": "escrows",
      "outputs": [
        {
          "internalType": "uint256",
          "name": "propertyId",
          "type": "uint256"
        },
        {
          "internalType": "address payable",
          "name": "buyer",
          "type": "address"
        },
        {
          "internalType": "address payable",
          "name": "seller",
          "type": "address"
        },
        {
          "internalType": "uint256",
          "name": "amount",
          "type": "uint256"
        },
        {
          "internalType": "bool",
          "name": "fundsReleased",
          "type": "bool"
        }
      ],
      "stateMutability": "view",
      "type": "function"
    },
    {
      "inputs": [],
      "name": "getContractBalance",
      "outputs": [
        {
          "internalType": "uint256",
          "name": "",
          "type": "uint256"
        }
      ],
      "stateMutability": "view",
      "type": "function"
    },
    {
      "inputs": [
        {
          "internalType": "uint256",
          "name": "_propertyId",
          "type": "uint256"
        },
        {
          "internalType": "uint256",
          "name": "_offerIndex",
          "type": "uint256"
        }
      ],
      "name": "initiateEscrow",
      "outputs": [],
      "stateMutability": "nonpayable",
      "type": "function"
    },
    {
      "inputs": [
        {
          "internalType": "string",
          "name": "_description",
          "type": "string"
        },
        {
          "internalType": "uint256",
          "name": "_price",
          "type": "uint256"
        }
      ],
      "name": "listProperty",
      "outputs": [],
      "stateMutability": "nonpayable",
      "type": "function"
    },
    {
      "inputs": [
        {
          "internalType": "uint256",
          "name": "_propertyId",
          "type": "uint256"
        }
      ],
      "name": "makeOffer",
      "outputs": [],
      "stateMutability": "payable",
      "type": "function"
    },
    {
      "inputs": [
        {
          "internalType": "uint256",
          "name": "",
          "type": "uint256"
        },
        {
          "internalType": "uint256",
          "name": "",
          "type": "uint256"
        }
      ],
      "name": "offers",
      "outputs": [
        {
          "internalType": "uint256",
          "name": "propertyId",
          "type": "uint256"
        },
        {
          "internalType": "address payable",
          "name": "buyer",
          "type": "address"
        },
        {
          "internalType": "uint256",
          "name": "offerPrice",
          "type": "uint256"
        },
        {
          "internalType": "bool",
          "name": "isAccepted",
          "type": "bool"
        },
        {
          "internalType": "bool",
          "name": "escrowInitiated",
          "type": "bool"
        }
      ],
      "stateMutability": "view",
      "type": "function"
    },
    {
      "inputs": [],
      "name": "owner",
      "outputs": [
        {
          "internalType": "address",
          "name": "",
          "type": "address"
        }
      ],
      "stateMutability": "view",
      "type": "function"
    },
    {
      "inputs": [
        {
          "internalType": "address",
          "name": "",
          "type": "address"
        }
      ],
      "name": "participants",
      "outputs": [
        {
          "internalType": "address payable",
          "name": "account",
          "type": "address"
        },
        {
          "internalType": "enum RealEstateTransaction.Role",
          "name": "role",
          "type": "uint8"
        }
      ],
      "stateMutability": "view",
      "type": "function"
    },
    {
      "inputs": [
        {
          "internalType": "uint256",
          "name": "",
          "type": "uint256"
        }
      ],
      "name": "properties",
      "outputs": [
        {
          "internalType": "uint256",
          "name": "id",
          "type": "uint256"
        },
        {
          "internalType": "string",
          "name": "description",
          "type": "string"
        },
        {
          "internalType": "uint256",
          "name": "price",
          "type": "uint256"
        },
        {
          "internalType": "address payable",
          "name": "owner",
          "type": "address"
        },
        {
          "internalType": "bool",
          "name": "isListed",
          "type": "bool"
        }
      ],
      "stateMutability": "view",
      "type": "function"
    },
    {
      "inputs": [],
      "name": "propertyCount",
      "outputs": [
        {
          "internalType": "uint256",
          "name": "",
          "type": "uint256"
        }
      ],
      "stateMutability": "view",
      "type": "function"
    },
    {
      "inputs": [
        {
          "internalType": "enum RealEstateTransaction.Role",
          "name": "_role",
          "type": "uint8"
        }
      ],
      "name": "register",
      "outputs": [],
      "stateMutability": "nonpayable",
      "type": "function"
    },
    {
      "inputs": [
        {
          "internalType": "uint256",
          "name": "_propertyId",
          "type": "uint256"
        }
      ],
      "name": "releaseFunds",
      "outputs": [],
      "stateMutability": "nonpayable",
      "type": "function"
    },
    {
      "inputs": [],
      "name": "renounceOwnership",
      "outputs": [],
      "stateMutability": "nonpayable",
      "type": "function"
    },
    {
      "inputs": [
        {
          "internalType": "address",
          "name": "newOwner",
          "type": "address"
        }
      ],
      "name": "transferOwnership",
      "outputs": [],
      "stateMutability": "nonpayable",
      "type": "function"
    }
  ],
  "bytecode": "0x608060405234801561001057600080fd5b5033600073ffffffffffffffffffffffffffffffffffffffff168173ffffffffffffffffffffffffffffffffffffffff16036100845760006040517f1e4fbdf700000000000000000000000000000000000000000000000000000000815260040161007b91906101a5565b60405180910390fd5b610093816100a060201b60201c565b50600180819055506101c0565b60008060009054906101000a900473ffffffffffffffffffffffffffffffffffffffff169050816000806101000a81548173ffffffffffffffffffffffffffffffffffffffff021916908373ffffffffffffffffffffffffffffffffffffffff1602179055508173ffffffffffffffffffffffffffffffffffffffff168173ffffffffffffffffffffffffffffffffffffffff167f8be0079c531659141344cd1fd0a4f28419497f9722a3daafe3b4186f6b6457e060405160405180910390a35050565b600073ffffffffffffffffffffffffffffffffffffffff82169050919050565b600061018f82610164565b9050919050565b61019f81610184565b82525050565b60006020820190506101ba6000830184610196565b92915050565b6129c5806101cf6000396000f3fe6080604052600436106100e85760003560e01c806381257bd51161008a578063c361a33511610059578063c361a335146102da578063de9476ad14610305578063f2fde38b1461032e578063f7b1080814610357576100e8565b806381257bd5146102415780638da5cb5b1461026a5780639a2f6474146102955780639ed25fcf146102b1576100e8565b80634d68282f116100c65780634d68282f146101ad57806361d689fa146101d65780636f9fb98a146101ff578063715018a61461022a576100e8565b8063012f52ee146100ed57806309e69ede1461012e5780634d03a9a51461016c575b600080fd5b3480156100f957600080fd5b50610114600480360381019061010f9190611996565b610398565b604051610125959493929190611a2e565b60405180910390f35b34801561013a57600080fd5b5061015560048036038101906101509190611abf565b61041b565b604051610163929190611b63565b60405180910390f35b34801561017857600080fd5b50610193600480360381019061018e9190611b8c565b61046c565b6040516101a4959493929190611bcc565b60405180910390f35b3480156101b957600080fd5b506101d460048036038101906101cf9190611996565b6104f9565b005b3480156101e257600080fd5b506101fd60048036038101906101f89190611c44565b610814565b005b34801561020b57600080fd5b5061021461090d565b6040516102219190611c71565b60405180910390f35b34801561023657600080fd5b5061023f610915565b005b34801561024d57600080fd5b5061026860048036038101906102639190611b8c565b610929565b005b34801561027657600080fd5b5061027f610cac565b60405161028c9190611c9b565b60405180910390f35b6102af60048036038101906102aa9190611996565b610cd5565b005b3480156102bd57600080fd5b506102d860048036038101906102d39190611b8c565b6110a6565b005b3480156102e657600080fd5b506102ef611439565b6040516102fc9190611c71565b60405180910390f35b34801561031157600080fd5b5061032c60048036038101906103279190611dfc565b61143f565b005b34801561033a57600080fd5b5061035560048036038101906103509190611abf565b611639565b005b34801561036357600080fd5b5061037e60048036038101906103799190611996565b6116bf565b60405161038f959493929190611ed7565b60405180910390f35b60056020528060005260406000206000915090508060000154908060010160009054906101000a900473ffffffffffffffffffffffffffffffffffffffff16908060020160009054906101000a900473ffffffffffffffffffffffffffffffffffffffff16908060030154908060040160009054906101000a900460ff16905085565b60066020528060005260406000206000915090508060000160009054906101000a900473ffffffffffffffffffffffffffffffffffffffff16908060000160149054906101000a900460ff16905082565b6004602052816000526040600020818154811061048857600080fd5b9060005260206000209060040201600091509150508060000154908060010160009054906101000a900473ffffffffffffffffffffffffffffffffffffffff16908060020154908060030160009054906101000a900460ff16908060030160019054906101000a900460ff16905085565b6105016117aa565b60006005600083815260200190815260200160002090506000600360008481526020019081526020016000209050600015158260040160009054906101000a900460ff16151514610587576040517f08c379a000000000000000000000000000000000000000000000000000000000815260040161057e90611f7d565b60405180910390fd5b8160010160009054906101000a900473ffffffffffffffffffffffffffffffffffffffff1673ffffffffffffffffffffffffffffffffffffffff163373ffffffffffffffffffffffffffffffffffffffff16148061063457508160020160009054906101000a900473ffffffffffffffffffffffffffffffffffffffff1673ffffffffffffffffffffffffffffffffffffffff163373ffffffffffffffffffffffffffffffffffffffff16145b610673576040517f08c379a000000000000000000000000000000000000000000000000000000000815260040161066a9061200f565b60405180910390fd5b60008260030154116106ba576040517f08c379a00000000000000000000000000000000000000000000000000000000081526004016106b19061207b565b60405180910390fd5b8160020160009054906101000a900473ffffffffffffffffffffffffffffffffffffffff1673ffffffffffffffffffffffffffffffffffffffff166108fc83600301549081150290604051600060405180830381858888f19350505050158015610728573d6000803e3d6000fd5b5060018260040160006101000a81548160ff0219169083151502179055508160010160009054906101000a900473ffffffffffffffffffffffffffffffffffffffff168160030160006101000a81548173ffffffffffffffffffffffffffffffffffffffff021916908373ffffffffffffffffffffffffffffffffffffffff16021790555060008160030160146101000a81548160ff0219169083151502179055507f80230996023d69b50793fa73f1919127c9d8e741d3989743c479169f22e7a2888383600301546040516107ff92919061209b565b60405180910390a150506108116117f0565b50565b60405180604001604052803373ffffffffffffffffffffffffffffffffffffffff16815260200182600381111561084e5761084d611aec565b5b815250600660003373ffffffffffffffffffffffffffffffffffffffff1673ffffffffffffffffffffffffffffffffffffffff16815260200190815260200160002060008201518160000160006101000a81548173ffffffffffffffffffffffffffffffffffffffff021916908373ffffffffffffffffffffffffffffffffffffffff16021790555060208201518160000160146101000a81548160ff0219169083600381111561090257610901611aec565b5b021790555090505050565b600047905090565b61091d6117f9565b6109276000611880565b565b60006003600084815260200190815260200160002090506000600460008581526020019081526020016000208381548110610967576109666120c4565b5b906000526020600020906004020190508160030160009054906101000a900473ffffffffffffffffffffffffffffffffffffffff1673ffffffffffffffffffffffffffffffffffffffff163373ffffffffffffffffffffffffffffffffffffffff1614610a09576040517f08c379a0000000000000000000000000000000000000000000000000000000008152600401610a0090612165565b60405180910390fd5b8160030160149054906101000a900460ff16610a5a576040517f08c379a0000000000000000000000000000000000000000000000000000000008152600401610a51906121d1565b60405180910390fd5b8060030160009054906101000a900460ff1615610aac576040517f08c379a0000000000000000000000000000000000000000000000000000000008152600401610aa39061223d565b60405180910390fd5b60018160030160006101000a81548160ff0219169083151502179055506040518060a001604052808581526020018260010160009054906101000a900473ffffffffffffffffffffffffffffffffffffffff1673ffffffffffffffffffffffffffffffffffffffff1681526020018360030160009054906101000a900473ffffffffffffffffffffffffffffffffffffffff1673ffffffffffffffffffffffffffffffffffffffff1681526020018260020154815260200160001515815250600560008681526020019081526020016000206000820151816000015560208201518160010160006101000a81548173ffffffffffffffffffffffffffffffffffffffff021916908373ffffffffffffffffffffffffffffffffffffffff16021790555060408201518160020160006101000a81548173ffffffffffffffffffffffffffffffffffffffff021916908373ffffffffffffffffffffffffffffffffffffffff1602179055506060820151816003015560808201518160040160006101000a81548160ff0219169083151502179055509050507fea555ab99331ceac5051c58f17cc7b411b30241b0e28cb93a7d3a24c77a7a9a9848260010160009054906101000a900473ffffffffffffffffffffffffffffffffffffffff168360020154604051610c9e939291906122bc565b60405180910390a150505050565b60008060009054906101000a900473ffffffffffffffffffffffffffffffffffffffff16905090565b6000600360008381526020019081526020016000206040518060a001604052908160008201548152602001600182018054610d0f90612322565b80601f0160208091040260200160405190810160405280929190818152602001828054610d3b90612322565b8015610d885780601f10610d5d57610100808354040283529160200191610d88565b820191906000526020600020905b815481529060010190602001808311610d6b57829003601f168201915b50505050508152602001600282015481526020016003820160009054906101000a900473ffffffffffffffffffffffffffffffffffffffff1673ffffffffffffffffffffffffffffffffffffffff1673ffffffffffffffffffffffffffffffffffffffff1681526020016003820160149054906101000a900460ff16151515158152505090508060800151610e52576040517f08c379a0000000000000000000000000000000000000000000000000000000008152600401610e499061239f565b60405180910390fd5b60003411610e95576040517f08c379a0000000000000000000000000000000000000000000000000000000008152600401610e8c9061240b565b60405180910390fd5b60006003811115610ea957610ea8611aec565b5b600660003373ffffffffffffffffffffffffffffffffffffffff1673ffffffffffffffffffffffffffffffffffffffff16815260200190815260200160002060000160149054906101000a900460ff166003811115610f0b57610f0a611aec565b5b14610f4b576040517f08c379a0000000000000000000000000000000000000000000000000000000008152600401610f4290612477565b60405180910390fd5b600460008381526020019081526020016000206040518060a001604052808481526020013373ffffffffffffffffffffffffffffffffffffffff1681526020013481526020016000151581526020016000151581525090806001815401808255809150506001900390600052602060002090600402016000909190919091506000820151816000015560208201518160010160006101000a81548173ffffffffffffffffffffffffffffffffffffffff021916908373ffffffffffffffffffffffffffffffffffffffff1602179055506040820151816002015560608201518160030160006101000a81548160ff02191690831515021790555060808201518160030160016101000a81548160ff02191690831515021790555050507fbdf1e76c2ba2a5c85b93bf78678a4a3b06d63b18422612dac8d7d5249ed4671482333460405161109a93929190612497565b60405180910390a15050565b6110ae6117aa565b60006004600084815260200190815260200160002082815481106110d5576110d46120c4565b5b9060005260206000209060040201905060006003600085815260200190815260200160002090508160030160009054906101000a900460ff1661114d576040517f08c379a00000000000000000000000000000000000000000000000000000000081526004016111449061251a565b60405180910390fd5b8160030160019054906101000a900460ff161561119f576040517f08c379a000000000000000000000000000000000000000000000000000000000815260040161119690612586565b60405180910390fd5b8160010160009054906101000a900473ffffffffffffffffffffffffffffffffffffffff1673ffffffffffffffffffffffffffffffffffffffff163373ffffffffffffffffffffffffffffffffffffffff1614611231576040517f08c379a000000000000000000000000000000000000000000000000000000000815260040161122890612618565b60405180910390fd5b6040518060a001604052808581526020018360010160009054906101000a900473ffffffffffffffffffffffffffffffffffffffff1673ffffffffffffffffffffffffffffffffffffffff1681526020018260030160009054906101000a900473ffffffffffffffffffffffffffffffffffffffff1673ffffffffffffffffffffffffffffffffffffffff1681526020018360020154815260200160001515815250600560008681526020019081526020016000206000820151816000015560208201518160010160006101000a81548173ffffffffffffffffffffffffffffffffffffffff021916908373ffffffffffffffffffffffffffffffffffffffff16021790555060408201518160020160006101000a81548173ffffffffffffffffffffffffffffffffffffffff021916908373ffffffffffffffffffffffffffffffffffffffff1602179055506060820151816003015560808201518160040160006101000a81548160ff02191690831515021790555090505060018260030160016101000a81548160ff0219169083151502179055507f2662de1021999d111db09723c07dc9b40847f2054ef3ef7912a31446531c4503848360010160009054906101000a900473ffffffffffffffffffffffffffffffffffffffff168460020154604051611423939291906122bc565b60405180910390a150506114356117f0565b5050565b60025481565b6001600381111561145357611452611aec565b5b600660003373ffffffffffffffffffffffffffffffffffffffff1673ffffffffffffffffffffffffffffffffffffffff16815260200190815260200160002060000160149054906101000a900460ff1660038111156114b5576114b4611aec565b5b146114f5576040517f08c379a00000000000000000000000000000000000000000000000000000000081526004016114ec90612684565b60405180910390fd5b60026000815480929190611508906126d3565b91905055506040518060a0016040528060025481526020018381526020018281526020013373ffffffffffffffffffffffffffffffffffffffff1681526020016001151581525060036000600254815260200190815260200160002060008201518160000155602082015181600101908161158391906128bd565b506040820151816002015560608201518160030160006101000a81548173ffffffffffffffffffffffffffffffffffffffff021916908373ffffffffffffffffffffffffffffffffffffffff16021790555060808201518160030160146101000a81548160ff0219169083151502179055509050507f23fb658c1698b92f5fe511a079c17ecf7965cbc3f1b873328c67e2c3c0820f1f600254338360405161162d93929190612497565b60405180910390a15050565b6116416117f9565b600073ffffffffffffffffffffffffffffffffffffffff168173ffffffffffffffffffffffffffffffffffffffff16036116b35760006040517f1e4fbdf70000000000000000000000000000000000000000000000000000000081526004016116aa9190611c9b565b60405180910390fd5b6116bc81611880565b50565b60036020528060005260406000206000915090508060000154908060010180546116e890612322565b80601f016020809104026020016040519081016040528092919081815260200182805461171490612322565b80156117615780601f1061173657610100808354040283529160200191611761565b820191906000526020600020905b81548152906001019060200180831161174457829003601f168201915b5050505050908060020154908060030160009054906101000a900473ffffffffffffffffffffffffffffffffffffffff16908060030160149054906101000a900460ff16905085565b6002600154036117e6576040517f3ee5aeb500000000000000000000000000000000000000000000000000000000815260040160405180910390fd5b6002600181905550565b60018081905550565b611801611944565b73ffffffffffffffffffffffffffffffffffffffff1661181f610cac565b73ffffffffffffffffffffffffffffffffffffffff161461187e57611842611944565b6040517f118cdaa70000000000000000000000000000000000000000000000000000000081526004016118759190611c9b565b60405180910390fd5b565b60008060009054906101000a900473ffffffffffffffffffffffffffffffffffffffff169050816000806101000a81548173ffffffffffffffffffffffffffffffffffffffff021916908373ffffffffffffffffffffffffffffffffffffffff1602179055508173ffffffffffffffffffffffffffffffffffffffff168173ffffffffffffffffffffffffffffffffffffffff167f8be0079c531659141344cd1fd0a4f28419497f9722a3daafe3b4186f6b6457e060405160405180910390a35050565b600033905090565b6000604051905090565b600080fd5b600080fd5b6000819050919050565b61197381611960565b811461197e57600080fd5b50565b6000813590506119908161196a565b92915050565b6000602082840312156119ac576119ab611956565b5b60006119ba84828501611981565b91505092915050565b6119cc81611960565b82525050565b600073ffffffffffffffffffffffffffffffffffffffff82169050919050565b60006119fd826119d2565b9050919050565b611a0d816119f2565b82525050565b60008115159050919050565b611a2881611a13565b82525050565b600060a082019050611a4360008301886119c3565b611a506020830187611a04565b611a5d6040830186611a04565b611a6a60608301856119c3565b611a776080830184611a1f565b9695505050505050565b6000611a8c826119d2565b9050919050565b611a9c81611a81565b8114611aa757600080fd5b50565b600081359050611ab981611a93565b92915050565b600060208284031215611ad557611ad4611956565b5b6000611ae384828501611aaa565b91505092915050565b7f4e487b7100000000000000000000000000000000000000000000000000000000600052602160045260246000fd5b60048110611b2c57611b2b611aec565b5b50565b6000819050611b3d82611b1b565b919050565b6000611b4d82611b2f565b9050919050565b611b5d81611b42565b82525050565b6000604082019050611b786000830185611a04565b611b856020830184611b54565b9392505050565b60008060408385031215611ba357611ba2611956565b5b6000611bb185828601611981565b9250506020611bc285828601611981565b9150509250929050565b600060a082019050611be160008301886119c3565b611bee6020830187611a04565b611bfb60408301866119c3565b611c086060830185611a1f565b611c156080830184611a1f565b9695505050505050565b60048110611c2c57600080fd5b50565b600081359050611c3e81611c1f565b92915050565b600060208284031215611c5a57611c59611956565b5b6000611c6884828501611c2f565b91505092915050565b6000602082019050611c8660008301846119c3565b92915050565b611c9581611a81565b82525050565b6000602082019050611cb06000830184611c8c565b92915050565b600080fd5b600080fd5b6000601f19601f8301169050919050565b7f4e487b7100000000000000000000000000000000000000000000000000000000600052604160045260246000fd5b611d0982611cc0565b810181811067ffffffffffffffff82111715611d2857611d27611cd1565b5b80604052505050565b6000611d3b61194c565b9050611d478282611d00565b919050565b600067ffffffffffffffff821115611d6757611d66611cd1565b5b611d7082611cc0565b9050602081019050919050565b82818337600083830152505050565b6000611d9f611d9a84611d4c565b611d31565b905082815260208101848484011115611dbb57611dba611cbb565b5b611dc6848285611d7d565b509392505050565b600082601f830112611de357611de2611cb6565b5b8135611df3848260208601611d8c565b91505092915050565b60008060408385031215611e1357611e12611956565b5b600083013567ffffffffffffffff811115611e3157611e3061195b565b5b611e3d85828601611dce565b9250506020611e4e85828601611981565b9150509250929050565b600081519050919050565b600082825260208201905092915050565b60005b83811015611e92578082015181840152602081019050611e77565b60008484015250505050565b6000611ea982611e58565b611eb38185611e63565b9350611ec3818560208601611e74565b611ecc81611cc0565b840191505092915050565b600060a082019050611eec60008301886119c3565b8181036020830152611efe8187611e9e565b9050611f0d60408301866119c3565b611f1a6060830185611a04565b611f276080830184611a1f565b9695505050505050565b7f46756e647320616c72656164792072656c656173656400000000000000000000600082015250565b6000611f67601683611e63565b9150611f7282611f31565b602082019050919050565b60006020820190508181036000830152611f9681611f5a565b9050919050565b7f4f6e6c79206275796572206f722073656c6c65722063616e2072656c6561736560008201527f2066756e64730000000000000000000000000000000000000000000000000000602082015250565b6000611ff9602683611e63565b915061200482611f9d565b604082019050919050565b6000602082019050818103600083015261202881611fec565b9050919050565b7f457363726f77206e6f742066756e646564000000000000000000000000000000600082015250565b6000612065601183611e63565b91506120708261202f565b602082019050919050565b6000602082019050818103600083015261209481612058565b9050919050565b60006040820190506120b060008301856119c3565b6120bd60208301846119c3565b9392505050565b7f4e487b7100000000000000000000000000000000000000000000000000000000600052603260045260246000fd5b7f4f6e6c79207468652070726f7065727479206f776e65722063616e206163636560008201527f7074206f66666572730000000000000000000000000000000000000000000000602082015250565b600061214f602983611e63565b915061215a826120f3565b604082019050919050565b6000602082019050818103600083015261217e81612142565b9050919050565b7f50726f7065727479206973206e6f74206c697374656400000000000000000000600082015250565b60006121bb601683611e63565b91506121c682612185565b602082019050919050565b600060208201905081810360008301526121ea816121ae565b9050919050565b7f4f6666657220616c726561647920616363657074656400000000000000000000600082015250565b6000612227601683611e63565b9150612232826121f1565b602082019050919050565b600060208201905081810360008301526122568161221a565b9050919050565b6000819050919050565b600061228261227d612278846119d2565b61225d565b6119d2565b9050919050565b600061229482612267565b9050919050565b60006122a682612289565b9050919050565b6122b68161229b565b82525050565b60006060820190506122d160008301866119c3565b6122de60208301856122ad565b6122eb60408301846119c3565b949350505050565b7f4e487b7100000000000000000000000000000000000000000000000000000000600052602260045260246000fd5b6000600282049050600182168061233a57607f821691505b60208210810361234d5761234c6122f3565b5b50919050565b7f50726f7065727479206e6f74206c697374656400000000000000000000000000600082015250565b6000612389601383611e63565b915061239482612353565b602082019050919050565b600060208201905081810360008301526123b88161237c565b9050919050565b7f4f66666572206d7573742068617665206120706f7369746976652076616c7565600082015250565b60006123f5602083611e63565b9150612400826123bf565b602082019050919050565b60006020820190508181036000830152612424816123e8565b9050919050565b7f4f6e6c79206275796572732063616e206d616b65206f66666572730000000000600082015250565b6000612461601b83611e63565b915061246c8261242b565b602082019050919050565b6000602082019050818103600083015261249081612454565b9050919050565b60006060820190506124ac60008301866119c3565b6124b96020830185611c8c565b6124c660408301846119c3565b949350505050565b7f4f66666572206e6f742061636365707465640000000000000000000000000000600082015250565b6000612504601283611e63565b915061250f826124ce565b602082019050919050565b60006020820190508181036000830152612533816124f7565b9050919050565b7f457363726f7720616c726561647920696e697469617465640000000000000000600082015250565b6000612570601883611e63565b915061257b8261253a565b602082019050919050565b6000602082019050818103600083015261259f81612563565b9050919050565b7f4f6e6c79207468652062757965722063616e20696e697469617465206573637260008201527f6f77000000000000000000000000000000000000000000000000000000000000602082015250565b6000612602602283611e63565b915061260d826125a6565b604082019050919050565b60006020820190508181036000830152612631816125f5565b9050919050565b7f4f6e6c792073656c6c6572732063616e206c6973742070726f70657274696573600082015250565b600061266e602083611e63565b915061267982612638565b602082019050919050565b6000602082019050818103600083015261269d81612661565b9050919050565b7f4e487b7100000000000000000000000000000000000000000000000000000000600052601160045260246000fd5b60006126de82611960565b91507fffffffffffffffffffffffffffffffffffffffffffffffffffffffffffffffff82036127105761270f6126a4565b5b600182019050919050565b60008190508160005260206000209050919050565b60006020601f8301049050919050565b600082821b905092915050565b60006008830261277d7fffffffffffffffffffffffffffffffffffffffffffffffffffffffffffffffff82612740565b6127878683612740565b95508019841693508086168417925050509392505050565b60006127ba6127b56127b084611960565b61225d565b611960565b9050919050565b6000819050919050565b6127d48361279f565b6127e86127e0826127c1565b84845461274d565b825550505050565b600090565b6127fd6127f0565b6128088184846127cb565b505050565b5b8181101561282c576128216000826127f5565b60018101905061280e565b5050565b601f821115612871576128428161271b565b61284b84612730565b8101602085101561285a578190505b61286e61286685612730565b83018261280d565b50505b505050565b600082821c905092915050565b600061289460001984600802612876565b1980831691505092915050565b60006128ad8383612883565b9150826002028217905092915050565b6128c682611e58565b67ffffffffffffffff8111156128df576128de611cd1565b5b6128e98254612322565b6128f4828285612830565b600060209050601f8311600181146129275760008415612915578287015190505b61291f85826128a1565b865550612987565b601f1984166129358661271b565b60005b8281101561295d57848901518255600182019150602085019450602081019050612938565b8683101561297a5784890151612976601f891682612883565b8355505b6001600288020188555050505b50505050505056fea2646970667358221220cb5084459594c58df01d2f704aa4321b4208512fbcf8cceed91ee6c56c64c00e64736f6c634300081b0033",
  "linkReferences": {},
  "deployedLinkReferences": {}
}